{"abi":[{"inputs":[{"internalType":"uint256","name":"vst","type":"uint256"},{"internalType":"uint256","name":"vet","type":"uint256"}],"stateMutability":"nonpayable","type":"constructor"},{"inputs":[{"internalType":"uint256","name":"proposalName","type":"uint256"}],"name":"Proposed","outputs":[],"stateMutability":"nonpayable","type":"function"},{"inputs":[{"internalType":"uint256","name":"i","type":"uint256"}],"name":"blockOrTimeReached","outputs":[{"internalType":"bool","name":"","type":"bool"}],"stateMutability":"view","type":"function"},{"inputs":[],"name":"chairperson","outputs":[{"internalType":"address","name":"","type":"address"}],"stateMutability":"view","type":"function"},{"inputs":[{"internalType":"address","name":"voter","type":"address"},{"internalType":"uint256","name":"newWeight","type":"uint256"}],"name":"giveRightToVote","outputs":[],"stateMutability":"nonpayable","type":"function"},{"inputs":[{"internalType":"uint256","name":"","type":"uint256"}],"name":"proposals","outputs":[{"internalType":"uint256","name":"name","type":"uint256"},{"internalType":"uint256","name":"voteCount","type":"uint256"}],"stateMutability":"view","type":"function"},{"inputs":[{"internalType":"uint256","name":"","type":"uint256"}],"name":"times","outputs":[{"internalType":"uint256","name":"","type":"uint256"}],"stateMutability":"view","type":"function"},{"inputs":[{"internalType":"uint256","name":"proposal","type":"uint256"}],"name":"vote","outputs":[],"stateMutability":"nonpayable","type":"function"},{"inputs":[{"internalType":"address","name":"","type":"address"}],"name":"voters","outputs":[{"internalType":"uint256","name":"weight","type":"uint256"},{"internalType":"bool","name":"voted","type":"bool"},{"internalType":"address","name":"delegate","type":"address"},{"internalType":"uint256","name":"vote","type":"uint256"},{"internalType":"uint256","name":"proposal","type":"uint256"}],"stateMutability":"view","type":"function"},{"inputs":[],"name":"winnerName","outputs":[{"internalType":"uint256","name":"winnerName_","type":"uint256"}],"stateMutability":"view","type":"function"},{"inputs":[],"name":"winningProposal","outputs":[{"internalType":"uint256","name":"winningProposal_","type":"uint256"}],"stateMutability":"view","type":"function"}],"devdoc":{"details":"Implements voting process along with vote delegation","kind":"dev","methods":{"giveRightToVote(address,uint256)":{"details":"Give 'voter' the right to vote on this ballot. May only be called by 'chairperson'.","params":{"voter":"address of voter"}},"vote(uint256)":{"details":"Give your vote (including votes delegated to you) to proposal 'proposals[proposal].name'.","params":{"proposal":"index of proposal in the proposals array"}},"winnerName()":{"details":"Calls winningProposal() function to get the index of the winner contained in the proposals array and then","returns":{"winnerName_":"the name of the winner"}},"winningProposal()":{"details":"Computes the winning proposal taking all previous votes into account.","returns":{"winningProposal_":"index of winning proposal in the proposals array"}}},"title":"Ballot","version":1},"evm":{"assembly":"    /* \"vote.sol\":158:6371  contract Ballot {\r... */\n  mstore(0x40, 0x80)\n    /* \"vote.sol\":1126:1297  constructor(uint vst,uint vet)public {\r... */\n  callvalue\n  dup1\n  iszero\n  tag_1\n  jumpi\n  0x00\n  dup1\n  revert\ntag_1:\n  pop\n  mload(0x40)\n  sub(codesize, bytecodeSize)\n  dup1\n  bytecodeSize\n  dup4\n  codecopy\n  dup2\n  dup2\n  add\n  0x40\n  mstore\n  0x40\n  dup2\n  lt\n  iszero\n  tag_2\n  jumpi\n  0x00\n  dup1\n  revert\ntag_2:\n  pop\n  dup1\n  mload\n  0x20\n  swap2\n  dup3\n  add\n  mload\n    /* \"vote.sol\":1174:1185  chairperson */\n  0x00\n    /* \"vote.sol\":1174:1198  chairperson = msg.sender */\n  dup1\n  sload\n  not(sub(shl(0xa0, 0x01), 0x01))\n  and\n    /* \"vote.sol\":1188:1198  msg.sender */\n  caller\n    /* \"vote.sol\":1174:1198  chairperson = msg.sender */\n  or\n  dup1\n  dup3\n  sstore\n  sub(shl(0xa0, 0x01), 0x01)\n    /* \"vote.sol\":1216:1227  chairperson */\n  and\n    /* \"vote.sol\":1209:1228  voters[chairperson] */\n  dup2\n  mstore\n  0x01\n  swap4\n  dup5\n  swap1\n  mstore\n    /* \"vote.sol\":1126:1297  constructor(uint vst,uint vet)public {\r... */\n  0x40\n    /* \"vote.sol\":1209:1228  voters[chairperson] */\n  dup2\n  keccak256\n    /* \"vote.sol\":1209:1239  voters[chairperson].weight = 1 */\n  swap4\n  swap1\n  swap4\n  sstore\n    /* \"vote.sol\":1250:1255  times */\n  0x03\n    /* \"vote.sol\":1250:1264  times[0] = vst */\n  swap2\n  swap1\n  swap2\n  sstore\n    /* \"vote.sol\":1275:1283  times[1] */\n  0x04\n    /* \"vote.sol\":1275:1289  times[1] = vet */\n  sstore\n    /* \"vote.sol\":158:6371  contract Ballot {\r... */\n  dataSize(sub_0)\n  swap1\n  dup2\n  swap1\n  dataOffset(sub_0)\n  swap1\n  codecopy\n  0x00\n  return\nstop\n\nsub_0: assembly {\n        /* \"vote.sol\":158:6371  contract Ballot {\r... */\n      mstore(0x40, 0x80)\n      callvalue\n      dup1\n      iszero\n      tag_1\n      jumpi\n      0x00\n      dup1\n      revert\n    tag_1:\n      pop\n      jumpi(tag_2, lt(calldatasize, 0x04))\n      shr(0xe0, calldataload(0x00))\n      dup1\n      0x609ff1bd\n      gt\n      tag_13\n      jumpi\n      dup1\n      0x609ff1bd\n      eq\n      tag_8\n      jumpi\n      dup1\n      0xa3ec138d\n      eq\n      tag_9\n      jumpi\n      dup1\n      0xbce69c96\n      eq\n      tag_10\n      jumpi\n      dup1\n      0xce50aa7d\n      eq\n      tag_11\n      jumpi\n      dup1\n      0xe2ba53f0\n      eq\n      tag_12\n      jumpi\n      jump(tag_2)\n    tag_13:\n      dup1\n      0x0121b93f\n      eq\n      tag_3\n      jumpi\n      dup1\n      0x013cf08b\n      eq\n      tag_4\n      jumpi\n      dup1\n      0x20982bce\n      eq\n      tag_5\n      jumpi\n      dup1\n      0x2e4176cf\n      eq\n      tag_6\n      jumpi\n      dup1\n      0x3eb8d9f2\n      eq\n      tag_7\n      jumpi\n    tag_2:\n      0x00\n      dup1\n      revert\n        /* \"vote.sol\":4856:5458  function vote(uint proposal) public {\r... */\n    tag_3:\n      tag_14\n      0x04\n      dup1\n      calldatasize\n      sub\n      0x20\n      dup2\n      lt\n      iszero\n      tag_15\n      jumpi\n      0x00\n      dup1\n      revert\n    tag_15:\n      pop\n      calldataload\n      tag_16\n      jump\t// in\n    tag_14:\n      stop\n        /* \"vote.sol\":919:946  Proposal[] public proposals */\n    tag_4:\n      tag_17\n      0x04\n      dup1\n      calldatasize\n      sub\n      0x20\n      dup2\n      lt\n      iszero\n      tag_18\n      jumpi\n      0x00\n      dup1\n      revert\n    tag_18:\n      pop\n      calldataload\n      tag_19\n      jump\t// in\n    tag_17:\n      0x40\n      dup1\n      mload\n      swap3\n      dup4\n      mstore\n      0x20\n      dup4\n      add\n      swap2\n      swap1\n      swap2\n      mstore\n      dup1\n      mload\n      swap2\n      dup3\n      swap1\n      sub\n      add\n      swap1\n      return\n        /* \"vote.sol\":1059:1079  uint[2] public times */\n    tag_5:\n      tag_20\n      0x04\n      dup1\n      calldatasize\n      sub\n      0x20\n      dup2\n      lt\n      iszero\n      tag_21\n      jumpi\n      0x00\n      dup1\n      revert\n    tag_21:\n      pop\n      calldataload\n      tag_22\n      jump\t// in\n    tag_20:\n      0x40\n      dup1\n      mload\n      swap2\n      dup3\n      mstore\n      mload\n      swap1\n      dup2\n      swap1\n      sub\n      0x20\n      add\n      swap1\n      return\n        /* \"vote.sol\":773:799  address public chairperson */\n    tag_6:\n      tag_23\n      tag_24\n      jump\t// in\n    tag_23:\n      0x40\n      dup1\n      mload\n      sub(shl(0xa0, 0x01), 0x01)\n      swap1\n      swap3\n      and\n      dup3\n      mstore\n      mload\n      swap1\n      dup2\n      swap1\n      sub\n      0x20\n      add\n      swap1\n      return\n        /* \"vote.sol\":1309:1908  function blockOrTimeReached(uint i)public view returns(bool){\r... */\n    tag_7:\n      tag_25\n      0x04\n      dup1\n      calldatasize\n      sub\n      0x20\n      dup2\n      lt\n      iszero\n      tag_26\n      jumpi\n      0x00\n      dup1\n      revert\n    tag_26:\n      pop\n      calldataload\n      tag_27\n      jump\t// in\n    tag_25:\n      0x40\n      dup1\n      mload\n      swap2\n      iszero\n      iszero\n      dup3\n      mstore\n      mload\n      swap1\n      dup2\n      swap1\n      sub\n      0x20\n      add\n      swap1\n      return\n        /* \"vote.sol\":5650:6025  function winningProposal() public view\r... */\n    tag_8:\n      tag_20\n      tag_29\n      jump\t// in\n        /* \"vote.sol\":808:847  mapping(address => Voter) public voters */\n    tag_9:\n      tag_30\n      0x04\n      dup1\n      calldatasize\n      sub\n      0x20\n      dup2\n      lt\n      iszero\n      tag_31\n      jumpi\n      0x00\n      dup1\n      revert\n    tag_31:\n      pop\n      calldataload\n      sub(shl(0xa0, 0x01), 0x01)\n      and\n      tag_32\n      jump\t// in\n    tag_30:\n      0x40\n      dup1\n      mload\n      swap6\n      dup7\n      mstore\n      swap4\n      iszero\n      iszero\n      0x20\n      dup7\n      add\n      mstore\n      sub(shl(0xa0, 0x01), 0x01)\n      swap1\n      swap3\n      and\n      dup5\n      dup5\n      add\n      mstore\n      0x60\n      dup5\n      add\n      mstore\n      0x80\n      dup4\n      add\n      mstore\n      mload\n      swap1\n      dup2\n      swap1\n      sub\n      0xa0\n      add\n      swap1\n      return\n        /* \"vote.sol\":2336:2898  function Proposed(uint  proposalName)public{\r... */\n    tag_10:\n      tag_14\n      0x04\n      dup1\n      calldatasize\n      sub\n      0x20\n      dup2\n      lt\n      iszero\n      tag_34\n      jumpi\n      0x00\n      dup1\n      revert\n    tag_34:\n      pop\n      calldataload\n      tag_35\n      jump\t// in\n        /* \"vote.sol\":3070:3536  function giveRightToVote(address voter, uint newWeight) public {\r... */\n    tag_11:\n      tag_14\n      0x04\n      dup1\n      calldatasize\n      sub\n      0x40\n      dup2\n      lt\n      iszero\n      tag_37\n      jumpi\n      0x00\n      dup1\n      revert\n    tag_37:\n      pop\n      sub(shl(0xa0, 0x01), 0x01)\n      dup2\n      calldataload\n      and\n      swap1\n      0x20\n      add\n      calldataload\n      tag_38\n      jump\t// in\n        /* \"vote.sol\":6222:6368  function winnerName() public view\r... */\n    tag_12:\n      tag_20\n      tag_40\n      jump\t// in\n        /* \"vote.sol\":4856:5458  function vote(uint proposal) public {\r... */\n    tag_16:\n        /* \"vote.sol\":4911:4932  blockOrTimeReached(1) */\n      tag_42\n        /* \"vote.sol\":4930:4931  1 */\n      0x01\n        /* \"vote.sol\":4911:4929  blockOrTimeReached */\n      tag_27\n        /* \"vote.sol\":4911:4932  blockOrTimeReached(1) */\n      jump\t// in\n    tag_42:\n        /* \"vote.sol\":4903:4962  require(blockOrTimeReached(1),\"Now is not time for Votng!\") */\n      tag_43\n      jumpi\n      0x40\n      dup1\n      mload\n      shl(0xe5, 0x461bcd)\n      dup2\n      mstore\n      0x20\n      0x04\n      dup3\n      add\n      mstore\n      0x1a\n      0x24\n      dup3\n      add\n      mstore\n      0x4e6f77206973206e6f742074696d6520666f7220566f746e6721000000000000\n      0x44\n      dup3\n      add\n      mstore\n      swap1\n      mload\n      swap1\n      dup2\n      swap1\n      sub\n      0x64\n      add\n      swap1\n      revert\n    tag_43:\n        /* \"vote.sol\":5043:5053  msg.sender */\n      caller\n        /* \"vote.sol\":5036:5054  voters[msg.sender] */\n      0x00\n      swap1\n      dup2\n      mstore\n        /* \"vote.sol\":5036:5042  voters */\n      0x01\n        /* \"vote.sol\":5036:5054  voters[msg.sender] */\n      0x20\n      mstore\n      0x40\n      swap1\n      keccak256\n        /* \"vote.sol\":5036:5061  voters[msg.sender].weight */\n      sload\n        /* \"vote.sol\":5028:5091  require(voters[msg.sender].weight != 0, \"Has no right to vote\") */\n      tag_44\n      jumpi\n      0x40\n      dup1\n      mload\n      shl(0xe5, 0x461bcd)\n      dup2\n      mstore\n      0x20\n      0x04\n      dup3\n      add\n      mstore\n      0x14\n      0x24\n      dup3\n      add\n      mstore\n      shl(0x60, 0x486173206e6f20726967687420746f20766f7465)\n      0x44\n      dup3\n      add\n      mstore\n      swap1\n      mload\n      swap1\n      dup2\n      swap1\n      sub\n      0x64\n      add\n      swap1\n      revert\n    tag_44:\n        /* \"vote.sol\":5118:5128  msg.sender */\n      caller\n        /* \"vote.sol\":5111:5129  voters[msg.sender] */\n      0x00\n      swap1\n      dup2\n      mstore\n        /* \"vote.sol\":5111:5117  voters */\n      0x01\n        /* \"vote.sol\":5111:5129  voters[msg.sender] */\n      0x20\n      dup2\n      swap1\n      mstore\n      0x40\n      swap1\n      swap2\n      keccak256\n        /* \"vote.sol\":5111:5135  voters[msg.sender].voted */\n      add\n      sload\n      0xff\n      and\n        /* \"vote.sol\":5110:5135  !voters[msg.sender].voted */\n      iszero\n        /* \"vote.sol\":5102:5154  require(!voters[msg.sender].voted, \"Already voted.\") */\n      tag_45\n      jumpi\n      0x40\n      dup1\n      mload\n      shl(0xe5, 0x461bcd)\n      dup2\n      mstore\n      0x20\n      0x04\n      dup3\n      add\n      mstore\n      0x0e\n      0x24\n      dup3\n      add\n      mstore\n      shl(0x91, 0x20b63932b0b23c903b37ba32b217)\n      0x44\n      dup3\n      add\n      mstore\n      swap1\n      mload\n      swap1\n      dup2\n      swap1\n      sub\n      0x64\n      add\n      swap1\n      revert\n    tag_45:\n        /* \"vote.sol\":5172:5182  msg.sender */\n      caller\n        /* \"vote.sol\":5165:5183  voters[msg.sender] */\n      0x00\n      swap1\n      dup2\n      mstore\n        /* \"vote.sol\":5192:5196  true */\n      0x01\n        /* \"vote.sol\":5165:5183  voters[msg.sender] */\n      0x20\n      dup2\n      swap1\n      mstore\n      0x40\n      swap1\n      swap2\n      keccak256\n        /* \"vote.sol\":5165:5189  voters[msg.sender].voted */\n      dup1\n      dup3\n      add\n        /* \"vote.sol\":5165:5196  voters[msg.sender].voted = true */\n      dup1\n      sload\n      not(0xff)\n      and\n      swap1\n      swap3\n      or\n      swap1\n      swap2\n      sstore\n        /* \"vote.sol\":5207:5230  voters[msg.sender].vote */\n      0x02\n      dup1\n      dup3\n      add\n        /* \"vote.sol\":5207:5241  voters[msg.sender].vote = proposal */\n      dup4\n      swap1\n      sstore\n        /* \"vote.sol\":5425:5450  voters[msg.sender].weight */\n      swap1\n      sload\n        /* \"vote.sol\":5392:5411  proposals[proposal] */\n      dup2\n      sload\n        /* \"vote.sol\":5425:5450  voters[msg.sender].weight */\n      swap1\n      swap2\n        /* \"vote.sol\":5207:5230  voters[msg.sender].vote */\n      swap1\n        /* \"vote.sol\":5233:5241  proposal */\n      dup4\n      swap1\n        /* \"vote.sol\":5392:5411  proposals[proposal] */\n      dup2\n      lt\n      tag_46\n      jumpi\n      invalid\n    tag_46:\n      0x00\n      swap2\n      dup3\n      mstore\n      0x20\n      swap1\n      swap2\n      keccak256\n        /* \"vote.sol\":5392:5421  proposals[proposal].voteCount */\n      0x01\n        /* \"vote.sol\":5392:5411  proposals[proposal] */\n      0x02\n      swap1\n      swap3\n      mul\n      add\n        /* \"vote.sol\":5392:5421  proposals[proposal].voteCount */\n      add\n        /* \"vote.sol\":5392:5450  proposals[proposal].voteCount += voters[msg.sender].weight */\n      dup1\n      sload\n      swap1\n      swap2\n      add\n      swap1\n      sstore\n      pop\n        /* \"vote.sol\":4856:5458  function vote(uint proposal) public {\r... */\n      jump\t// out\n        /* \"vote.sol\":919:946  Proposal[] public proposals */\n    tag_19:\n      0x02\n      dup2\n      dup2\n      sload\n      dup2\n      lt\n      tag_48\n      jumpi\n      invalid\n    tag_48:\n      0x00\n      swap2\n      dup3\n      mstore\n      0x20\n      swap1\n      swap2\n      keccak256\n      0x02\n      swap1\n      swap2\n      mul\n      add\n      dup1\n      sload\n      0x01\n      swap1\n      swap2\n      add\n      sload\n      swap1\n      swap2\n      pop\n      dup3\n      jump\t// out\n        /* \"vote.sol\":1059:1079  uint[2] public times */\n    tag_22:\n      0x03\n      dup2\n      0x02\n      dup2\n      lt\n      tag_50\n      jumpi\n      invalid\n    tag_50:\n      add\n      sload\n      swap1\n      pop\n      dup2\n      jump\t// out\n        /* \"vote.sol\":773:799  address public chairperson */\n    tag_24:\n      and(sub(shl(0xa0, 0x01), 0x01), sload(0x00))\n      dup2\n      jump\t// out\n        /* \"vote.sol\":1309:1908  function blockOrTimeReached(uint i)public view returns(bool){\r... */\n    tag_27:\n        /* \"vote.sol\":1364:1368  bool */\n      0x00\n        /* \"vote.sol\":1383:1389  i == 0 */\n      dup2\n        /* \"vote.sol\":1380:1900  if(i == 0){//////////////Setting or Propose state\r... */\n      tag_53\n      jumpi\n        /* \"vote.sol\":1471:1476  times */\n      0x03\n        /* \"vote.sol\":1471:1479  times[0] */\n      sload\n        /* \"vote.sol\":1464:1468  1000 */\n      0x03e8\n        /* \"vote.sol\":1446:1461  block.timestamp */\n      timestamp\n        /* \"vote.sol\":1446:1468  block.timestamp * 1000 */\n      mul\n        /* \"vote.sol\":1446:1479  block.timestamp * 1000 < times[0] */\n      lt\n        /* \"vote.sol\":1443:1523  if(block.timestamp * 1000 < times[0])return true;\r... */\n      iszero\n      tag_56\n      jumpi\n      pop\n        /* \"vote.sol\":1487:1491  true */\n      0x01\n        /* \"vote.sol\":1480:1491  return true */\n      jump(tag_73)\n        /* \"vote.sol\":1443:1523  if(block.timestamp * 1000 < times[0])return true;\r... */\n    tag_56:\n      pop\n        /* \"vote.sol\":1518:1523  false */\n      0x00\n        /* \"vote.sol\":1511:1523  return false */\n      jump(tag_73)\n        /* \"vote.sol\":1380:1900  if(i == 0){//////////////Setting or Propose state\r... */\n    tag_53:\n        /* \"vote.sol\":1553:1554  i */\n      dup2\n        /* \"vote.sol\":1558:1559  1 */\n      0x01\n        /* \"vote.sol\":1553:1559  i == 1 */\n      eq\n        /* \"vote.sol\":1550:1900  if(i == 1){/////////Vote\r... */\n      iszero\n      tag_59\n      jumpi\n        /* \"vote.sol\":1617:1625  times[1] */\n      sload(0x04)\n        /* \"vote.sol\":1610:1614  1000 */\n      0x03e8\n        /* \"vote.sol\":1592:1607  block.timestamp */\n      timestamp\n        /* \"vote.sol\":1592:1614  block.timestamp * 1000 */\n      mul\n        /* \"vote.sol\":1592:1625  block.timestamp * 1000 < times[1] */\n      lt\n        /* \"vote.sol\":1591:1662  (block.timestamp * 1000 < times[1])&& (block.timestamp *1000> times[0]) */\n      dup1\n      iszero\n      tag_62\n      jumpi\n      pop\n        /* \"vote.sol\":1653:1658  times */\n      0x03\n        /* \"vote.sol\":1659:1660  0 */\n      0x00\n        /* \"vote.sol\":1653:1661  times[0] */\n    tag_63:\n      add\n      sload\n        /* \"vote.sol\":1630:1645  block.timestamp */\n      timestamp\n        /* \"vote.sol\":1647:1651  1000 */\n      0x03e8\n        /* \"vote.sol\":1630:1651  block.timestamp *1000 */\n      mul\n        /* \"vote.sol\":1630:1661  block.timestamp *1000> times[0] */\n      gt\n        /* \"vote.sol\":1591:1662  (block.timestamp * 1000 < times[1])&& (block.timestamp *1000> times[0]) */\n    tag_62:\n        /* \"vote.sol\":1588:1706  if((block.timestamp * 1000 < times[1])&& (block.timestamp *1000> times[0]))return true;\r... */\n      iszero\n      tag_56\n      jumpi\n      pop\n        /* \"vote.sol\":1670:1674  true */\n      0x01\n        /* \"vote.sol\":1663:1674  return true */\n      jump(tag_73)\n        /* \"vote.sol\":1550:1900  if(i == 1){/////////Vote\r... */\n    tag_59:\n        /* \"vote.sol\":1736:1737  i */\n      dup2\n        /* \"vote.sol\":1741:1742  2 */\n      0x02\n        /* \"vote.sol\":1736:1742  i == 2 */\n      eq\n        /* \"vote.sol\":1733:1900  if(i == 2){/////////Tally(vote end)\r... */\n      iszero\n      tag_56\n      jumpi\n        /* \"vote.sol\":1809:1814  times */\n      0x03\n        /* \"vote.sol\":1815:1816  1 */\n      0x01\n        /* \"vote.sol\":1809:1817  times[1] */\n      jump(tag_63)\n        /* \"vote.sol\":1733:1900  if(i == 2){/////////Tally(vote end)\r... */\n    tag_73:\n        /* \"vote.sol\":1309:1908  function blockOrTimeReached(uint i)public view returns(bool){\r... */\n      swap2\n      swap1\n      pop\n      jump\t// out\n        /* \"vote.sol\":5650:6025  function winningProposal() public view\r... */\n    tag_29:\n        /* \"vote.sol\":5711:5732  uint winningProposal_ */\n      0x00\n      dup1\n      dup1\n        /* \"vote.sol\":5786:6018  for (uint p = 0; p < proposals.length; p++) {\r... */\n    tag_75:\n        /* \"vote.sol\":5807:5816  proposals */\n      0x02\n        /* \"vote.sol\":5807:5823  proposals.length */\n      sload\n        /* \"vote.sol\":5803:5823  p < proposals.length */\n      dup2\n      lt\n        /* \"vote.sol\":5786:6018  for (uint p = 0; p < proposals.length; p++) {\r... */\n      iszero\n      tag_76\n      jumpi\n        /* \"vote.sol\":5874:5890  winningVoteCount */\n      dup2\n        /* \"vote.sol\":5849:5858  proposals */\n      0x02\n        /* \"vote.sol\":5859:5860  p */\n      dup3\n        /* \"vote.sol\":5849:5861  proposals[p] */\n      dup2\n      sload\n      dup2\n      lt\n      tag_78\n      jumpi\n      invalid\n    tag_78:\n      swap1\n      0x00\n      mstore\n      keccak256(0x00, 0x20)\n      swap1\n      0x02\n      mul\n      add\n        /* \"vote.sol\":5849:5871  proposals[p].voteCount */\n      0x01\n      add\n      sload\n        /* \"vote.sol\":5849:5890  proposals[p].voteCount > winningVoteCount */\n      gt\n        /* \"vote.sol\":5845:6007  if (proposals[p].voteCount > winningVoteCount) {\r... */\n      iszero\n      tag_80\n      jumpi\n        /* \"vote.sol\":5930:5939  proposals */\n      0x02\n        /* \"vote.sol\":5940:5941  p */\n      dup2\n        /* \"vote.sol\":5930:5942  proposals[p] */\n      dup2\n      sload\n      dup2\n      lt\n      tag_81\n      jumpi\n      invalid\n    tag_81:\n      swap1\n      0x00\n      mstore\n      keccak256(0x00, 0x20)\n      swap1\n      0x02\n      mul\n      add\n        /* \"vote.sol\":5930:5952  proposals[p].voteCount */\n      0x01\n      add\n      sload\n        /* \"vote.sol\":5911:5952  winningVoteCount = proposals[p].voteCount */\n      swap2\n      pop\n        /* \"vote.sol\":5990:5991  p */\n      dup1\n        /* \"vote.sol\":5971:5991  winningProposal_ = p */\n      swap3\n      pop\n        /* \"vote.sol\":5845:6007  if (proposals[p].voteCount > winningVoteCount) {\r... */\n    tag_80:\n        /* \"vote.sol\":5825:5828  p++ */\n      0x01\n      add\n        /* \"vote.sol\":5786:6018  for (uint p = 0; p < proposals.length; p++) {\r... */\n      jump(tag_75)\n    tag_76:\n      pop\n        /* \"vote.sol\":5650:6025  function winningProposal() public view\r... */\n      pop\n      swap1\n      jump\t// out\n        /* \"vote.sol\":808:847  mapping(address => Voter) public voters */\n    tag_32:\n      0x01\n      0x20\n      dup2\n      swap1\n      mstore\n      0x00\n      swap2\n      dup3\n      mstore\n      0x40\n      swap1\n      swap2\n      keccak256\n      dup1\n      sload\n      swap2\n      dup2\n      add\n      sload\n      0x02\n      dup3\n      add\n      sload\n      0x03\n      swap1\n      swap3\n      add\n      sload\n      0xff\n      dup3\n      and\n      swap3\n      0x0100\n      swap1\n      swap3\n      div\n      sub(shl(0xa0, 0x01), 0x01)\n      and\n      swap2\n      swap1\n      dup6\n      jump\t// out\n        /* \"vote.sol\":2336:2898  function Proposed(uint  proposalName)public{\r... */\n    tag_35:\n        /* \"vote.sol\":2752:2841  Proposal({\r... */\n      0x40\n      dup1\n      mload\n      dup1\n      dup3\n      add\n      swap1\n      swap2\n      mstore\n      swap1\n      dup2\n      mstore\n      0x00\n      0x20\n      dup3\n      add\n      dup2\n      dup2\n      mstore\n        /* \"vote.sol\":2737:2746  proposals */\n      0x02\n        /* \"vote.sol\":2737:2842  proposals.push(Proposal({\r... */\n      dup1\n      sload\n      0x01\n      dup2\n      add\n      dup3\n      sstore\n      swap3\n      dup2\n      swap1\n      mstore\n      swap3\n      mload\n      swap2\n      swap1\n      swap3\n      mul\n      0x405787fa12a823e0f2b7631cc41b3ba8828b3321ca811111fa75cd3aa3bb5ace\n      dup2\n      add\n      swap2\n      swap1\n      swap2\n      sstore\n      swap1\n      mload\n      0x405787fa12a823e0f2b7631cc41b3ba8828b3321ca811111fa75cd3aa3bb5acf\n      swap1\n      swap2\n      add\n      sstore\n        /* \"vote.sol\":2336:2898  function Proposed(uint  proposalName)public{\r... */\n      jump\t// out\n        /* \"vote.sol\":3070:3536  function giveRightToVote(address voter, uint newWeight) public {\r... */\n    tag_38:\n        /* \"vote.sol\":3166:3187  blockOrTimeReached(0) */\n      tag_86\n        /* \"vote.sol\":3185:3186  0 */\n      0x00\n        /* \"vote.sol\":3166:3184  blockOrTimeReached */\n      tag_27\n        /* \"vote.sol\":3166:3187  blockOrTimeReached(0) */\n      jump\t// in\n    tag_86:\n        /* \"vote.sol\":3144:3254  require(\r... */\n      tag_87\n      jumpi\n      mload(0x40)\n      shl(0xe5, 0x461bcd)\n      dup2\n      mstore\n      0x04\n      add\n      dup1\n      dup1\n      0x20\n      add\n      dup3\n      dup2\n      sub\n      dup3\n      mstore\n      0x27\n      dup2\n      mstore\n      0x20\n      add\n      dup1\n      data_6029d0876735ae19564528c47179c5fa13e57c2eba9f98b43090a4409510e6cc\n      0x27\n      swap2\n      codecopy\n      0x40\n      add\n      swap2\n      pop\n      pop\n      mload(0x40)\n      dup1\n      swap2\n      sub\n      swap1\n      revert\n    tag_87:\n        /* \"vote.sol\":3301:3312  chairperson */\n      and(sub(shl(0xa0, 0x01), 0x01), sload(0x00))\n        /* \"vote.sol\":3287:3297  msg.sender */\n      caller\n        /* \"vote.sol\":3287:3312  msg.sender == chairperson */\n      eq\n        /* \"vote.sol\":3265:3380  require(\r... */\n      tag_88\n      jumpi\n      mload(0x40)\n      shl(0xe5, 0x461bcd)\n      dup2\n      mstore\n      0x04\n      add\n      dup1\n      dup1\n      0x20\n      add\n      dup3\n      dup2\n      sub\n      dup3\n      mstore\n      0x28\n      dup2\n      mstore\n      0x20\n      add\n      dup1\n      data_80126ce3251ab2b6e4ade14fe5b2bc11f593510cbe9e3550c09bff1989e33b95\n      0x28\n      swap2\n      codecopy\n      0x40\n      add\n      swap2\n      pop\n      pop\n      mload(0x40)\n      dup1\n      swap2\n      sub\n      swap1\n      revert\n    tag_88:\n      sub(shl(0xa0, 0x01), 0x01)\n        /* \"vote.sol\":3414:3427  voters[voter] */\n      dup3\n      and\n      0x00\n      swap1\n      dup2\n      mstore\n        /* \"vote.sol\":3414:3420  voters */\n      0x01\n        /* \"vote.sol\":3414:3427  voters[voter] */\n      0x20\n      dup2\n      swap1\n      mstore\n      0x40\n      swap1\n      swap2\n      keccak256\n        /* \"vote.sol\":3414:3433  voters[voter].voted */\n      add\n      sload\n      0xff\n      and\n        /* \"vote.sol\":3413:3433  !voters[voter].voted */\n      iszero\n        /* \"vote.sol\":3391:3485  require(\r... */\n      tag_89\n      jumpi\n      0x40\n      dup1\n      mload\n      shl(0xe5, 0x461bcd)\n      dup2\n      mstore\n      0x20\n      0x04\n      dup3\n      add\n      mstore\n      0x18\n      0x24\n      dup3\n      add\n      mstore\n      0x54686520766f74657220616c726561647920766f7465642e0000000000000000\n      0x44\n      dup3\n      add\n      mstore\n      swap1\n      mload\n      swap1\n      dup2\n      swap1\n      sub\n      0x64\n      add\n      swap1\n      revert\n    tag_89:\n      sub(shl(0xa0, 0x01), 0x01)\n        /* \"vote.sol\":3496:3509  voters[voter] */\n      swap1\n      swap2\n      and\n      0x00\n      swap1\n      dup2\n      mstore\n        /* \"vote.sol\":3496:3502  voters */\n      0x01\n        /* \"vote.sol\":3496:3509  voters[voter] */\n      0x20\n      mstore\n      0x40\n      swap1\n      keccak256\n        /* \"vote.sol\":3496:3528  voters[voter].weight = newWeight */\n      sstore\n        /* \"vote.sol\":3070:3536  function giveRightToVote(address voter, uint newWeight) public {\r... */\n      jump\t// out\n        /* \"vote.sol\":6222:6368  function winnerName() public view\r... */\n    tag_40:\n        /* \"vote.sol\":6278:6295  uint  winnerName_ */\n      0x00\n        /* \"vote.sol\":6327:6336  proposals */\n      0x02\n        /* \"vote.sol\":6337:6354  winningProposal() */\n      tag_91\n        /* \"vote.sol\":6337:6352  winningProposal */\n      tag_29\n        /* \"vote.sol\":6337:6354  winningProposal() */\n      jump\t// in\n    tag_91:\n        /* \"vote.sol\":6327:6355  proposals[winningProposal()] */\n      dup2\n      sload\n      dup2\n      lt\n      tag_92\n      jumpi\n      invalid\n    tag_92:\n      swap1\n      0x00\n      mstore\n      keccak256(0x00, 0x20)\n      swap1\n      0x02\n      mul\n      add\n        /* \"vote.sol\":6327:6360  proposals[winningProposal()].name */\n      0x00\n      add\n      sload\n        /* \"vote.sol\":6313:6360  winnerName_ = proposals[winningProposal()].name */\n      swap1\n      pop\n        /* \"vote.sol\":6222:6368  function winnerName() public view\r... */\n      swap1\n      jump\t// out\n    stop\n    data_6029d0876735ae19564528c47179c5fa13e57c2eba9f98b43090a4409510e6cc 4e6f77206973206e6f742074696d6520666f722050726f706f7365206f722073657474696e6721\n    data_80126ce3251ab2b6e4ade14fe5b2bc11f593510cbe9e3550c09bff1989e33b95 4f6e6c79206368616972706572736f6e2063616e206769766520726967687420746f20766f74652e\n\n    auxdata: 0xa264697066735822122072d248b26da4af7f3c20e179c1548c0c5b88e2ad8c2c47a7ffc93072d159e5a364736f6c634300060c0033\n}\n","bytecode":{"linkReferences":{},"object":"608060405234801561001057600080fd5b506040516107bb3803806107bb8339818101604052604081101561003357600080fd5b508051602091820151600080546001600160a01b03191633178082556001600160a01b03168152600193849052604081209390935560039190915560045561073a90819061008190396000f3fe608060405234801561001057600080fd5b506004361061009e5760003560e01c8063609ff1bd11610066578063609ff1bd1461017c578063a3ec138d14610184578063bce69c96146101dd578063ce50aa7d146101fa578063e2ba53f0146102265761009e565b80630121b93f146100a3578063013cf08b146100c257806320982bce146100f85780632e4176cf146101275780633eb8d9f21461014b575b600080fd5b6100c0600480360360208110156100b957600080fd5b503561022e565b005b6100df600480360360208110156100d857600080fd5b5035610392565b6040805192835260208301919091528051918290030190f35b6101156004803603602081101561010e57600080fd5b50356103bd565b60408051918252519081900360200190f35b61012f6103d1565b604080516001600160a01b039092168252519081900360200190f35b6101686004803603602081101561016157600080fd5b50356103e0565b604080519115158252519081900360200190f35b610115610450565b6101aa6004803603602081101561019a57600080fd5b50356001600160a01b03166104b7565b6040805195865293151560208601526001600160a01b039092168484015260608401526080830152519081900360a00190f35b6100c0600480360360208110156101f357600080fd5b50356104f2565b6100c06004803603604081101561021057600080fd5b506001600160a01b03813516906020013561056c565b610115610688565b61023860016103e0565b610289576040805162461bcd60e51b815260206004820152601a60248201527f4e6f77206973206e6f742074696d6520666f7220566f746e6721000000000000604482015290519081900360640190fd5b336000908152600160205260409020546102e1576040805162461bcd60e51b8152602060048201526014602482015273486173206e6f20726967687420746f20766f746560601b604482015290519081900360640190fd5b336000908152600160208190526040909120015460ff161561033b576040805162461bcd60e51b815260206004820152600e60248201526d20b63932b0b23c903b37ba32b21760911b604482015290519081900360640190fd5b336000908152600160208190526040909120808201805460ff19169092179091556002808201839055905481549091908390811061037557fe5b600091825260209091206001600290920201018054909101905550565b6002818154811061039f57fe5b60009182526020909120600290910201805460019091015490915082565b600381600281106103ca57fe5b0154905081565b6000546001600160a01b031681565b600081610405576003546103e8420210156103fd5750600161044b565b50600061044b565b8160011415610439576004546103e8420210801561042c5750600360005b0154426103e802115b156103fd5750600161044b565b81600214156103fd5760036001610423565b919050565b600080805b6002548110156104b257816002828154811061046d57fe5b90600052602060002090600202016001015411156104aa576002818154811061049257fe5b90600052602060002090600202016001015491508092505b600101610455565b505090565b6001602081905260009182526040909120805491810154600282015460039092015460ff8216926101009092046001600160a01b0316919085565b6040805180820190915290815260006020820181815260028054600181018255928190529251919092027f405787fa12a823e0f2b7631cc41b3ba8828b3321ca811111fa75cd3aa3bb5ace81019190915590517f405787fa12a823e0f2b7631cc41b3ba8828b3321ca811111fa75cd3aa3bb5acf90910155565b61057660006103e0565b6105b15760405162461bcd60e51b81526004018080602001828103825260278152602001806106b66027913960400191505060405180910390fd5b6000546001600160a01b031633146105fa5760405162461bcd60e51b81526004018080602001828103825260288152602001806106dd6028913960400191505060405180910390fd5b6001600160a01b0382166000908152600160208190526040909120015460ff161561066c576040805162461bcd60e51b815260206004820152601860248201527f54686520766f74657220616c726561647920766f7465642e0000000000000000604482015290519081900360640190fd5b6001600160a01b03909116600090815260016020526040902055565b60006002610694610450565b8154811061069e57fe5b90600052602060002090600202016000015490509056fe4e6f77206973206e6f742074696d6520666f722050726f706f7365206f722073657474696e67214f6e6c79206368616972706572736f6e2063616e206769766520726967687420746f20766f74652ea264697066735822122072d248b26da4af7f3c20e179c1548c0c5b88e2ad8c2c47a7ffc93072d159e5a364736f6c634300060c0033","opcodes":"PUSH1 0x80 PUSH1 0x40 MSTORE CALLVALUE DUP1 ISZERO PUSH2 0x10 JUMPI PUSH1 0x0 DUP1 REVERT JUMPDEST POP PUSH1 0x40 MLOAD PUSH2 0x7BB CODESIZE SUB DUP1 PUSH2 0x7BB DUP4 CODECOPY DUP2 DUP2 ADD PUSH1 0x40 MSTORE PUSH1 0x40 DUP2 LT ISZERO PUSH2 0x33 JUMPI PUSH1 0x0 DUP1 REVERT JUMPDEST POP DUP1 MLOAD PUSH1 0x20 SWAP2 DUP3 ADD MLOAD PUSH1 0x0 DUP1 SLOAD PUSH1 0x1 PUSH1 0x1 PUSH1 0xA0 SHL SUB NOT AND CALLER OR DUP1 DUP3 SSTORE PUSH1 0x1 PUSH1 0x1 PUSH1 0xA0 SHL SUB AND DUP2 MSTORE PUSH1 0x1 SWAP4 DUP5 SWAP1 MSTORE PUSH1 0x40 DUP2 KECCAK256 SWAP4 SWAP1 SWAP4 SSTORE PUSH1 0x3 SWAP2 SWAP1 SWAP2 SSTORE PUSH1 0x4 SSTORE PUSH2 0x73A SWAP1 DUP2 SWAP1 PUSH2 0x81 SWAP1 CODECOPY PUSH1 0x0 RETURN INVALID PUSH1 0x80 PUSH1 0x40 MSTORE CALLVALUE DUP1 ISZERO PUSH2 0x10 JUMPI PUSH1 0x0 DUP1 REVERT JUMPDEST POP PUSH1 0x4 CALLDATASIZE LT PUSH2 0x9E JUMPI PUSH1 0x0 CALLDATALOAD PUSH1 0xE0 SHR DUP1 PUSH4 0x609FF1BD GT PUSH2 0x66 JUMPI DUP1 PUSH4 0x609FF1BD EQ PUSH2 0x17C JUMPI DUP1 PUSH4 0xA3EC138D EQ PUSH2 0x184 JUMPI DUP1 PUSH4 0xBCE69C96 EQ PUSH2 0x1DD JUMPI DUP1 PUSH4 0xCE50AA7D EQ PUSH2 0x1FA JUMPI DUP1 PUSH4 0xE2BA53F0 EQ PUSH2 0x226 JUMPI PUSH2 0x9E JUMP JUMPDEST DUP1 PUSH4 0x121B93F EQ PUSH2 0xA3 JUMPI DUP1 PUSH4 0x13CF08B EQ PUSH2 0xC2 JUMPI DUP1 PUSH4 0x20982BCE EQ PUSH2 0xF8 JUMPI DUP1 PUSH4 0x2E4176CF EQ PUSH2 0x127 JUMPI DUP1 PUSH4 0x3EB8D9F2 EQ PUSH2 0x14B JUMPI JUMPDEST PUSH1 0x0 DUP1 REVERT JUMPDEST PUSH2 0xC0 PUSH1 0x4 DUP1 CALLDATASIZE SUB PUSH1 0x20 DUP2 LT ISZERO PUSH2 0xB9 JUMPI PUSH1 0x0 DUP1 REVERT JUMPDEST POP CALLDATALOAD PUSH2 0x22E JUMP JUMPDEST STOP JUMPDEST PUSH2 0xDF PUSH1 0x4 DUP1 CALLDATASIZE SUB PUSH1 0x20 DUP2 LT ISZERO PUSH2 0xD8 JUMPI PUSH1 0x0 DUP1 REVERT JUMPDEST POP CALLDATALOAD PUSH2 0x392 JUMP JUMPDEST PUSH1 0x40 DUP1 MLOAD SWAP3 DUP4 MSTORE PUSH1 0x20 DUP4 ADD SWAP2 SWAP1 SWAP2 MSTORE DUP1 MLOAD SWAP2 DUP3 SWAP1 SUB ADD SWAP1 RETURN JUMPDEST PUSH2 0x115 PUSH1 0x4 DUP1 CALLDATASIZE SUB PUSH1 0x20 DUP2 LT ISZERO PUSH2 0x10E JUMPI PUSH1 0x0 DUP1 REVERT JUMPDEST POP CALLDATALOAD PUSH2 0x3BD JUMP JUMPDEST PUSH1 0x40 DUP1 MLOAD SWAP2 DUP3 MSTORE MLOAD SWAP1 DUP2 SWAP1 SUB PUSH1 0x20 ADD SWAP1 RETURN JUMPDEST PUSH2 0x12F PUSH2 0x3D1 JUMP JUMPDEST PUSH1 0x40 DUP1 MLOAD PUSH1 0x1 PUSH1 0x1 PUSH1 0xA0 SHL SUB SWAP1 SWAP3 AND DUP3 MSTORE MLOAD SWAP1 DUP2 SWAP1 SUB PUSH1 0x20 ADD SWAP1 RETURN JUMPDEST PUSH2 0x168 PUSH1 0x4 DUP1 CALLDATASIZE SUB PUSH1 0x20 DUP2 LT ISZERO PUSH2 0x161 JUMPI PUSH1 0x0 DUP1 REVERT JUMPDEST POP CALLDATALOAD PUSH2 0x3E0 JUMP JUMPDEST PUSH1 0x40 DUP1 MLOAD SWAP2 ISZERO ISZERO DUP3 MSTORE MLOAD SWAP1 DUP2 SWAP1 SUB PUSH1 0x20 ADD SWAP1 RETURN JUMPDEST PUSH2 0x115 PUSH2 0x450 JUMP JUMPDEST PUSH2 0x1AA PUSH1 0x4 DUP1 CALLDATASIZE SUB PUSH1 0x20 DUP2 LT ISZERO PUSH2 0x19A JUMPI PUSH1 0x0 DUP1 REVERT JUMPDEST POP CALLDATALOAD PUSH1 0x1 PUSH1 0x1 PUSH1 0xA0 SHL SUB AND PUSH2 0x4B7 JUMP JUMPDEST PUSH1 0x40 DUP1 MLOAD SWAP6 DUP7 MSTORE SWAP4 ISZERO ISZERO PUSH1 0x20 DUP7 ADD MSTORE PUSH1 0x1 PUSH1 0x1 PUSH1 0xA0 SHL SUB SWAP1 SWAP3 AND DUP5 DUP5 ADD MSTORE PUSH1 0x60 DUP5 ADD MSTORE PUSH1 0x80 DUP4 ADD MSTORE MLOAD SWAP1 DUP2 SWAP1 SUB PUSH1 0xA0 ADD SWAP1 RETURN JUMPDEST PUSH2 0xC0 PUSH1 0x4 DUP1 CALLDATASIZE SUB PUSH1 0x20 DUP2 LT ISZERO PUSH2 0x1F3 JUMPI PUSH1 0x0 DUP1 REVERT JUMPDEST POP CALLDATALOAD PUSH2 0x4F2 JUMP JUMPDEST PUSH2 0xC0 PUSH1 0x4 DUP1 CALLDATASIZE SUB PUSH1 0x40 DUP2 LT ISZERO PUSH2 0x210 JUMPI PUSH1 0x0 DUP1 REVERT JUMPDEST POP PUSH1 0x1 PUSH1 0x1 PUSH1 0xA0 SHL SUB DUP2 CALLDATALOAD AND SWAP1 PUSH1 0x20 ADD CALLDATALOAD PUSH2 0x56C JUMP JUMPDEST PUSH2 0x115 PUSH2 0x688 JUMP JUMPDEST PUSH2 0x238 PUSH1 0x1 PUSH2 0x3E0 JUMP JUMPDEST PUSH2 0x289 JUMPI PUSH1 0x40 DUP1 MLOAD PUSH3 0x461BCD PUSH1 0xE5 SHL DUP2 MSTORE PUSH1 0x20 PUSH1 0x4 DUP3 ADD MSTORE PUSH1 0x1A PUSH1 0x24 DUP3 ADD MSTORE PUSH32 0x4E6F77206973206E6F742074696D6520666F7220566F746E6721000000000000 PUSH1 0x44 DUP3 ADD MSTORE SWAP1 MLOAD SWAP1 DUP2 SWAP1 SUB PUSH1 0x64 ADD SWAP1 REVERT JUMPDEST CALLER PUSH1 0x0 SWAP1 DUP2 MSTORE PUSH1 0x1 PUSH1 0x20 MSTORE PUSH1 0x40 SWAP1 KECCAK256 SLOAD PUSH2 0x2E1 JUMPI PUSH1 0x40 DUP1 MLOAD PUSH3 0x461BCD PUSH1 0xE5 SHL DUP2 MSTORE PUSH1 0x20 PUSH1 0x4 DUP3 ADD MSTORE PUSH1 0x14 PUSH1 0x24 DUP3 ADD MSTORE PUSH20 0x486173206E6F20726967687420746F20766F7465 PUSH1 0x60 SHL PUSH1 0x44 DUP3 ADD MSTORE SWAP1 MLOAD SWAP1 DUP2 SWAP1 SUB PUSH1 0x64 ADD SWAP1 REVERT JUMPDEST CALLER PUSH1 0x0 SWAP1 DUP2 MSTORE PUSH1 0x1 PUSH1 0x20 DUP2 SWAP1 MSTORE PUSH1 0x40 SWAP1 SWAP2 KECCAK256 ADD SLOAD PUSH1 0xFF AND ISZERO PUSH2 0x33B JUMPI PUSH1 0x40 DUP1 MLOAD PUSH3 0x461BCD PUSH1 0xE5 SHL DUP2 MSTORE PUSH1 0x20 PUSH1 0x4 DUP3 ADD MSTORE PUSH1 0xE PUSH1 0x24 DUP3 ADD MSTORE PUSH14 0x20B63932B0B23C903B37BA32B217 PUSH1 0x91 SHL PUSH1 0x44 DUP3 ADD MSTORE SWAP1 MLOAD SWAP1 DUP2 SWAP1 SUB PUSH1 0x64 ADD SWAP1 REVERT JUMPDEST CALLER PUSH1 0x0 SWAP1 DUP2 MSTORE PUSH1 0x1 PUSH1 0x20 DUP2 SWAP1 MSTORE PUSH1 0x40 SWAP1 SWAP2 KECCAK256 DUP1 DUP3 ADD DUP1 SLOAD PUSH1 0xFF NOT AND SWAP1 SWAP3 OR SWAP1 SWAP2 SSTORE PUSH1 0x2 DUP1 DUP3 ADD DUP4 SWAP1 SSTORE SWAP1 SLOAD DUP2 SLOAD SWAP1 SWAP2 SWAP1 DUP4 SWAP1 DUP2 LT PUSH2 0x375 JUMPI INVALID JUMPDEST PUSH1 0x0 SWAP2 DUP3 MSTORE PUSH1 0x20 SWAP1 SWAP2 KECCAK256 PUSH1 0x1 PUSH1 0x2 SWAP1 SWAP3 MUL ADD ADD DUP1 SLOAD SWAP1 SWAP2 ADD SWAP1 SSTORE POP JUMP JUMPDEST PUSH1 0x2 DUP2 DUP2 SLOAD DUP2 LT PUSH2 0x39F JUMPI INVALID JUMPDEST PUSH1 0x0 SWAP2 DUP3 MSTORE PUSH1 0x20 SWAP1 SWAP2 KECCAK256 PUSH1 0x2 SWAP1 SWAP2 MUL ADD DUP1 SLOAD PUSH1 0x1 SWAP1 SWAP2 ADD SLOAD SWAP1 SWAP2 POP DUP3 JUMP JUMPDEST PUSH1 0x3 DUP2 PUSH1 0x2 DUP2 LT PUSH2 0x3CA JUMPI INVALID JUMPDEST ADD SLOAD SWAP1 POP DUP2 JUMP JUMPDEST PUSH1 0x0 SLOAD PUSH1 0x1 PUSH1 0x1 PUSH1 0xA0 SHL SUB AND DUP2 JUMP JUMPDEST PUSH1 0x0 DUP2 PUSH2 0x405 JUMPI PUSH1 0x3 SLOAD PUSH2 0x3E8 TIMESTAMP MUL LT ISZERO PUSH2 0x3FD JUMPI POP PUSH1 0x1 PUSH2 0x44B JUMP JUMPDEST POP PUSH1 0x0 PUSH2 0x44B JUMP JUMPDEST DUP2 PUSH1 0x1 EQ ISZERO PUSH2 0x439 JUMPI PUSH1 0x4 SLOAD PUSH2 0x3E8 TIMESTAMP MUL LT DUP1 ISZERO PUSH2 0x42C JUMPI POP PUSH1 0x3 PUSH1 0x0 JUMPDEST ADD SLOAD TIMESTAMP PUSH2 0x3E8 MUL GT JUMPDEST ISZERO PUSH2 0x3FD JUMPI POP PUSH1 0x1 PUSH2 0x44B JUMP JUMPDEST DUP2 PUSH1 0x2 EQ ISZERO PUSH2 0x3FD JUMPI PUSH1 0x3 PUSH1 0x1 PUSH2 0x423 JUMP JUMPDEST SWAP2 SWAP1 POP JUMP JUMPDEST PUSH1 0x0 DUP1 DUP1 JUMPDEST PUSH1 0x2 SLOAD DUP2 LT ISZERO PUSH2 0x4B2 JUMPI DUP2 PUSH1 0x2 DUP3 DUP2 SLOAD DUP2 LT PUSH2 0x46D JUMPI INVALID JUMPDEST SWAP1 PUSH1 0x0 MSTORE PUSH1 0x20 PUSH1 0x0 KECCAK256 SWAP1 PUSH1 0x2 MUL ADD PUSH1 0x1 ADD SLOAD GT ISZERO PUSH2 0x4AA JUMPI PUSH1 0x2 DUP2 DUP2 SLOAD DUP2 LT PUSH2 0x492 JUMPI INVALID JUMPDEST SWAP1 PUSH1 0x0 MSTORE PUSH1 0x20 PUSH1 0x0 KECCAK256 SWAP1 PUSH1 0x2 MUL ADD PUSH1 0x1 ADD SLOAD SWAP2 POP DUP1 SWAP3 POP JUMPDEST PUSH1 0x1 ADD PUSH2 0x455 JUMP JUMPDEST POP POP SWAP1 JUMP JUMPDEST PUSH1 0x1 PUSH1 0x20 DUP2 SWAP1 MSTORE PUSH1 0x0 SWAP2 DUP3 MSTORE PUSH1 0x40 SWAP1 SWAP2 KECCAK256 DUP1 SLOAD SWAP2 DUP2 ADD SLOAD PUSH1 0x2 DUP3 ADD SLOAD PUSH1 0x3 SWAP1 SWAP3 ADD SLOAD PUSH1 0xFF DUP3 AND SWAP3 PUSH2 0x100 SWAP1 SWAP3 DIV PUSH1 0x1 PUSH1 0x1 PUSH1 0xA0 SHL SUB AND SWAP2 SWAP1 DUP6 JUMP JUMPDEST PUSH1 0x40 DUP1 MLOAD DUP1 DUP3 ADD SWAP1 SWAP2 MSTORE SWAP1 DUP2 MSTORE PUSH1 0x0 PUSH1 0x20 DUP3 ADD DUP2 DUP2 MSTORE PUSH1 0x2 DUP1 SLOAD PUSH1 0x1 DUP2 ADD DUP3 SSTORE SWAP3 DUP2 SWAP1 MSTORE SWAP3 MLOAD SWAP2 SWAP1 SWAP3 MUL PUSH32 0x405787FA12A823E0F2B7631CC41B3BA8828B3321CA811111FA75CD3AA3BB5ACE DUP2 ADD SWAP2 SWAP1 SWAP2 SSTORE SWAP1 MLOAD PUSH32 0x405787FA12A823E0F2B7631CC41B3BA8828B3321CA811111FA75CD3AA3BB5ACF SWAP1 SWAP2 ADD SSTORE JUMP JUMPDEST PUSH2 0x576 PUSH1 0x0 PUSH2 0x3E0 JUMP JUMPDEST PUSH2 0x5B1 JUMPI PUSH1 0x40 MLOAD PUSH3 0x461BCD PUSH1 0xE5 SHL DUP2 MSTORE PUSH1 0x4 ADD DUP1 DUP1 PUSH1 0x20 ADD DUP3 DUP2 SUB DUP3 MSTORE PUSH1 0x27 DUP2 MSTORE PUSH1 0x20 ADD DUP1 PUSH2 0x6B6 PUSH1 0x27 SWAP2 CODECOPY PUSH1 0x40 ADD SWAP2 POP POP PUSH1 0x40 MLOAD DUP1 SWAP2 SUB SWAP1 REVERT JUMPDEST PUSH1 0x0 SLOAD PUSH1 0x1 PUSH1 0x1 PUSH1 0xA0 SHL SUB AND CALLER EQ PUSH2 0x5FA JUMPI PUSH1 0x40 MLOAD PUSH3 0x461BCD PUSH1 0xE5 SHL DUP2 MSTORE PUSH1 0x4 ADD DUP1 DUP1 PUSH1 0x20 ADD DUP3 DUP2 SUB DUP3 MSTORE PUSH1 0x28 DUP2 MSTORE PUSH1 0x20 ADD DUP1 PUSH2 0x6DD PUSH1 0x28 SWAP2 CODECOPY PUSH1 0x40 ADD SWAP2 POP POP PUSH1 0x40 MLOAD DUP1 SWAP2 SUB SWAP1 REVERT JUMPDEST PUSH1 0x1 PUSH1 0x1 PUSH1 0xA0 SHL SUB DUP3 AND PUSH1 0x0 SWAP1 DUP2 MSTORE PUSH1 0x1 PUSH1 0x20 DUP2 SWAP1 MSTORE PUSH1 0x40 SWAP1 SWAP2 KECCAK256 ADD SLOAD PUSH1 0xFF AND ISZERO PUSH2 0x66C JUMPI PUSH1 0x40 DUP1 MLOAD PUSH3 0x461BCD PUSH1 0xE5 SHL DUP2 MSTORE PUSH1 0x20 PUSH1 0x4 DUP3 ADD MSTORE PUSH1 0x18 PUSH1 0x24 DUP3 ADD MSTORE PUSH32 0x54686520766F74657220616C726561647920766F7465642E0000000000000000 PUSH1 0x44 DUP3 ADD MSTORE SWAP1 MLOAD SWAP1 DUP2 SWAP1 SUB PUSH1 0x64 ADD SWAP1 REVERT JUMPDEST PUSH1 0x1 PUSH1 0x1 PUSH1 0xA0 SHL SUB SWAP1 SWAP2 AND PUSH1 0x0 SWAP1 DUP2 MSTORE PUSH1 0x1 PUSH1 0x20 MSTORE PUSH1 0x40 SWAP1 KECCAK256 SSTORE JUMP JUMPDEST PUSH1 0x0 PUSH1 0x2 PUSH2 0x694 PUSH2 0x450 JUMP JUMPDEST DUP2 SLOAD DUP2 LT PUSH2 0x69E JUMPI INVALID JUMPDEST SWAP1 PUSH1 0x0 MSTORE PUSH1 0x20 PUSH1 0x0 KECCAK256 SWAP1 PUSH1 0x2 MUL ADD PUSH1 0x0 ADD SLOAD SWAP1 POP SWAP1 JUMP INVALID 0x4E PUSH16 0x77206973206E6F742074696D6520666F PUSH19 0x2050726F706F7365206F722073657474696E67 0x21 0x4F PUSH15 0x6C79206368616972706572736F6E20 PUSH4 0x616E2067 PUSH10 0x76652072696768742074 PUSH16 0x20766F74652EA2646970667358221220 PUSH19 0xD248B26DA4AF7F3C20E179C1548C0C5B88E2AD DUP13 0x2C SELFBALANCE 0xA7 SELFDESTRUCT 0xC9 ADDRESS PUSH19 0xD159E5A364736F6C634300060C003300000000 "},"gasEstimates":{"creation":{"codeDepositCost":"370000","executionCost":"infinite","totalCost":"infinite"},"external":{"Proposed(uint256)":"46182","blockOrTimeReached(uint256)":"2077","chairperson()":"1104","giveRightToVote(address,uint256)":"infinite","proposals(uint256)":"2810","times(uint256)":"1119","vote(uint256)":"2077","voters(address)":"3731","winnerName()":"infinite","winningProposal()":"infinite"},"internal":{"setVoteTime(uint256,uint256)":"infinite"}},"methodIdentifiers":{"Proposed(uint256)":"bce69c96","blockOrTimeReached(uint256)":"3eb8d9f2","chairperson()":"2e4176cf","giveRightToVote(address,uint256)":"ce50aa7d","proposals(uint256)":"013cf08b","times(uint256)":"20982bce","vote(uint256)":"0121b93f","voters(address)":"a3ec138d","winnerName()":"e2ba53f0","winningProposal()":"609ff1bd"}},"storageLayout":{"storage":[{"astId":20,"contract":"vote.sol:Ballot","label":"chairperson","offset":0,"slot":"0","type":"t_address"},{"astId":24,"contract":"vote.sol:Ballot","label":"voters","offset":0,"slot":"1","type":"t_mapping(t_address,t_struct(Voter)13_storage)"},{"astId":27,"contract":"vote.sol:Ballot","label":"proposals","offset":0,"slot":"2","type":"t_array(t_struct(Proposal)18_storage)dyn_storage"},{"astId":31,"contract":"vote.sol:Ballot","label":"times","offset":0,"slot":"3","type":"t_array(t_uint256)2_storage"}],"types":{"t_address":{"encoding":"inplace","label":"address","numberOfBytes":"20"},"t_array(t_struct(Proposal)18_storage)dyn_storage":{"base":"t_struct(Proposal)18_storage","encoding":"dynamic_array","label":"struct Ballot.Proposal[]","numberOfBytes":"32"},"t_array(t_uint256)2_storage":{"base":"t_uint256","encoding":"inplace","label":"uint256[2]","numberOfBytes":"64"},"t_bool":{"encoding":"inplace","label":"bool","numberOfBytes":"1"},"t_mapping(t_address,t_struct(Voter)13_storage)":{"encoding":"mapping","key":"t_address","label":"mapping(address => struct Ballot.Voter)","numberOfBytes":"32","value":"t_struct(Voter)13_storage"},"t_struct(Proposal)18_storage":{"encoding":"inplace","label":"struct Ballot.Proposal","members":[{"astId":15,"contract":"vote.sol:Ballot","label":"name","offset":0,"slot":"0","type":"t_uint256"},{"astId":17,"contract":"vote.sol:Ballot","label":"voteCount","offset":0,"slot":"1","type":"t_uint256"}],"numberOfBytes":"64"},"t_struct(Voter)13_storage":{"encoding":"inplace","label":"struct Ballot.Voter","members":[{"astId":4,"contract":"vote.sol:Ballot","label":"weight","offset":0,"slot":"0","type":"t_uint256"},{"astId":6,"contract":"vote.sol:Ballot","label":"voted","offset":0,"slot":"1","type":"t_bool"},{"astId":8,"contract":"vote.sol:Ballot","label":"delegate","offset":1,"slot":"1","type":"t_address"},{"astId":10,"contract":"vote.sol:Ballot","label":"vote","offset":0,"slot":"2","type":"t_uint256"},{"astId":12,"contract":"vote.sol:Ballot","label":"proposal","offset":0,"slot":"3","type":"t_uint256"}],"numberOfBytes":"128"},"t_uint256":{"encoding":"inplace","label":"uint256","numberOfBytes":"32"}}},"userdoc":{"kind":"user","methods":{},"version":1}}